:020000040800F2
:10000000781000200D010008F9010008E90100083E
:10001000F1010008B9010008110300080000000008
:1000200000000000000000000000000009020008BD
:10003000C1010008000000000102000811020008D0
:1000400000F002F800F052F814A696E8000CB24452
:10005000B344DA4501D100F049F8BAE80F000FA621
:1000600096E83000A5EB040504EB0607AAEB0704AD
:10007000A7F101074FEA15154FEA3414A4F1010462
:10008000AC4201D300F032F813F0010F18BFFB1A95
:1000900043F0010300F001F8DBE71847C00200005D
:1000A000E0020000103A24BF78C878C1FAD852079D
:1000B00024BF30C830C144BF04680C6070470000E2
:1000C000704700000023002400250026103A28BFB6
:1000D00078C1FBD8520728BF30C148BF0B607047BA
:1000E0001FB500F02DF91FBD10B510BD00F012F8BE
:1000F0001146FFF7F5FF00F013F900F030F803B4F4
:10010000FFF7F2FF03BC00F04FF8000000F088F8A2
:10011000FFF796FF754600F02BF8AE4605006946DE
:10012000534620F00700854618B020B500F024F8AB
:10013000BDE820404FF000064FF000074FF00008E8
:100140004FF0000BAC46ACE8C009ACE8C009ACE825
:10015000C009ACE8C00921F007018D46704710B511
:100160000446AFF300802046BDE81040FFF7C7BF4C
:10017000004870470800002000B585B0694601AA14
:100180000A604FF01600ABBE0198002802BF054878
:10019000C01D20F007000399029A049B05B000BD22
:1001A000150000000000000001491820ABBEFEE76A
:1001B0002600020070470000FEE70000000000007B
:1001C000704700000000000040F2000040F27001A3
:1001D000C2F20000C2F2000100780A681044086010
:1001E0007047000000000000FEE700000000000073
:1001F000FEE7000000000000704700000000000063
:100200007047000000000000704700000000000080
:1002100080B5FFF7D9FFBDE8804000F085B8000049
:100220004EF6885042F2000CCEF20000C5F2002CCF
:10023000016841F470010160DCF8000000F00F007B
:10024000062806D8DCF80000072161F30300CCF88B
:10025000000044F200404EF67F52C5F60200CEF692
:10026000F622016841F0010101600021016103688B
:100270001A400260DCF80020120706D5DCF80020E6
:10028000072363F30302CCF8002040F200228161CF
:10029000C161C0F20222016282620022C0F2FF123A
:1002A000C26240F28022C0F20112026341638263A3
:1002B000C16302644164026822F48022026041F258
:1002C00000020166C5F600421268B1EB527F05D10B
:1002D00048F208110122C5F200110A60D0F8D410CA
:1002E000C90448BF7047D0F8D41043F2D20241F499
:1002F0008051C0F8D41044F20001C5F200210A6018
:10030000D0F8D41021F48051C0F8D4107047000008
:10031000FEE7000000000000704700000000000041
:10032000FFF7FAFFFEE7000040F26800C2F20000AB
:10033000D0E90012013142F10002C0E90012704719
:10034000F1EE100A4FF6FF71C0F2C03120EA010051
:1003500040F04070E1EE100A704700008003000892
:100360000000002008000000A40000088803000826
:100370000800002070100000C40000080000000009
:08038000010000000000000074
:0400000508000041AE
:00000001FF
